{
  "contractName": "Diploma",
  "abi": [
    {
      "anonymous": false,
      "inputs": [
        {
          "indexed": false,
          "internalType": "bytes32",
          "name": "_checksum",
          "type": "bytes32"
        },
        {
          "indexed": false,
          "internalType": "string",
          "name": "_ipfsHash",
          "type": "string"
        },
        {
          "indexed": false,
          "internalType": "string",
          "name": "_filename",
          "type": "string"
        },
        {
          "indexed": true,
          "internalType": "address",
          "name": "_setBy",
          "type": "address"
        }
      ],
      "name": "NewEntry",
      "type": "event"
    },
    {
      "constant": true,
      "inputs": [
        {
          "internalType": "bytes32",
          "name": "",
          "type": "bytes32"
        }
      ],
      "name": "myMapping",
      "outputs": [
        {
          "internalType": "string",
          "name": "ipfsHash",
          "type": "string"
        },
        {
          "internalType": "string",
          "name": "fileName",
          "type": "string"
        },
        {
          "internalType": "uint256",
          "name": "timestamp",
          "type": "uint256"
        },
        {
          "internalType": "bytes32",
          "name": "checkSum",
          "type": "bytes32"
        },
        {
          "internalType": "uint256",
          "name": "grade",
          "type": "uint256"
        },
        {
          "internalType": "bool",
          "name": "isSet",
          "type": "bool"
        },
        {
          "internalType": "address",
          "name": "setBy",
          "type": "address"
        }
      ],
      "payable": false,
      "stateMutability": "view",
      "type": "function"
    },
    {
      "constant": false,
      "inputs": [
        {
          "internalType": "bytes32",
          "name": "_checksum",
          "type": "bytes32"
        },
        {
          "internalType": "string",
          "name": "_ipfsHash",
          "type": "string"
        },
        {
          "internalType": "string",
          "name": "_fileName",
          "type": "string"
        },
        {
          "internalType": "uint256",
          "name": "_grade",
          "type": "uint256"
        }
      ],
      "name": "createDiploma",
      "outputs": [],
      "payable": false,
      "stateMutability": "nonpayable",
      "type": "function"
    },
    {
      "constant": true,
      "inputs": [
        {
          "internalType": "bytes32",
          "name": "_checksum",
          "type": "bytes32"
        }
      ],
      "name": "getDiploma",
      "outputs": [
        {
          "internalType": "string",
          "name": "",
          "type": "string"
        },
        {
          "internalType": "string",
          "name": "",
          "type": "string"
        },
        {
          "internalType": "uint256",
          "name": "",
          "type": "uint256"
        },
        {
          "internalType": "uint256",
          "name": "",
          "type": "uint256"
        },
        {
          "internalType": "address",
          "name": "",
          "type": "address"
        }
      ],
      "payable": false,
      "stateMutability": "view",
      "type": "function"
    }
  ],
  "bytecode": "0x608060405234801561001057600080fd5b50610b23806100206000396000f3fe608060405234801561001057600080fd5b50600436106100415760003560e01c80632b04cb7714610046578063bba8b6301461019a578063dd46d59f14610300575b600080fd5b6100726004803603602081101561005c57600080fd5b8101908080359060200190929190505050610466565b6040518080602001806020018681526020018581526020018473ffffffffffffffffffffffffffffffffffffffff1673ffffffffffffffffffffffffffffffffffffffff168152602001838103835288818151815260200191508051906020019080838360005b838110156100f45780820151818401526020810190506100d9565b50505050905090810190601f1680156101215780820380516001836020036101000a031916815260200191505b50838103825287818151815260200191508051906020019080838360005b8381101561015a57808201518184015260208101905061013f565b50505050905090810190601f1680156101875780820380516001836020036101000a031916815260200191505b5097505050505050505060405180910390f35b6101c6600480360360208110156101b057600080fd5b8101908080359060200190929190505050610645565b604051808060200180602001888152602001878152602001868152602001851515151581526020018473ffffffffffffffffffffffffffffffffffffffff1673ffffffffffffffffffffffffffffffffffffffff16815260200183810383528a818151815260200191508051906020019080838360005b8381101561025857808201518184015260208101905061023d565b50505050905090810190601f1680156102855780820380516001836020036101000a031916815260200191505b50838103825289818151815260200191508051906020019080838360005b838110156102be5780820151818401526020810190506102a3565b50505050905090810190601f1680156102eb5780820380516001836020036101000a031916815260200191505b50995050505050505050505060405180910390f35b6104646004803603608081101561031657600080fd5b81019080803590602001909291908035906020019064010000000081111561033d57600080fd5b82018360208201111561034f57600080fd5b8035906020019184600183028401116401000000008311171561037157600080fd5b91908080601f016020809104026020016040519081016040528093929190818152602001838380828437600081840152601f19601f820116905080830192505050505050509192919290803590602001906401000000008111156103d457600080fd5b8201836020820111156103e657600080fd5b8035906020019184600183028401116401000000008311171561040857600080fd5b91908080601f016020809104026020016040519081016040528093929190818152602001838380828437600081840152601f19601f820116905080830192505050505050509192919290803590602001909291905050506107e4565b005b6060806000806000806000878152602001908152602001600020600101600080888152602001908152602001600020600001600080898152602001908152602001600020600201546000808a8152602001908152602001600020600401546000808b815260200190815260200160002060050160019054906101000a900473ffffffffffffffffffffffffffffffffffffffff16848054600181600116156101000203166002900480601f01602080910402602001604051908101604052809291908181526020018280546001816001161561010002031660029004801561058f5780601f106105645761010080835404028352916020019161058f565b820191906000526020600020905b81548152906001019060200180831161057257829003601f168201915b50505050509450838054600181600116156101000203166002900480601f01602080910402602001604051908101604052809291908181526020018280546001816001161561010002031660029004801561062b5780601f106106005761010080835404028352916020019161062b565b820191906000526020600020905b81548152906001019060200180831161060e57829003601f168201915b505050505093509450945094509450945091939590929450565b6000602052806000526040600020600091509050806000018054600181600116156101000203166002900480601f0160208091040260200160405190810160405280929190818152602001828054600181600116156101000203166002900480156106f15780601f106106c6576101008083540402835291602001916106f1565b820191906000526020600020905b8154815290600101906020018083116106d457829003601f168201915b505050505090806001018054600181600116156101000203166002900480601f01602080910402602001604051908101604052809291908181526020018280546001816001161561010002031660029004801561078f5780601f106107645761010080835404028352916020019161078f565b820191906000526020600020905b81548152906001019060200180831161077257829003601f168201915b5050505050908060020154908060030154908060040154908060050160009054906101000a900460ff16908060050160019054906101000a900473ffffffffffffffffffffffffffffffffffffffff16905087565b60008085815260200190815260200160002060050160009054906101000a900460ff161561081157600080fd5b600160008086815260200190815260200160002060050160006101000a81548160ff021916908315150217905550826000808681526020019081526020016000206000019080519060200190610868929190610a49565b50816000808681526020019081526020016000206001019080519060200190610892929190610a49565b50426000808681526020019081526020016000206002018190555080600080868152602001908152602001600020600401819055503360008086815260200190815260200160002060050160016101000a81548173ffffffffffffffffffffffffffffffffffffffff021916908373ffffffffffffffffffffffffffffffffffffffff1602179055503373ffffffffffffffffffffffffffffffffffffffff167f2820b2c1cf51c9da49ce7408325a347f38970532885890fce873f7f87d6f96e3858585604051808481526020018060200180602001838103835285818151815260200191508051906020019080838360005b838110156109a0578082015181840152602081019050610985565b50505050905090810190601f1680156109cd5780820380516001836020036101000a031916815260200191505b50838103825284818151815260200191508051906020019080838360005b83811015610a065780820151818401526020810190506109eb565b50505050905090810190601f168015610a335780820380516001836020036101000a031916815260200191505b509550505050505060405180910390a250505050565b828054600181600116156101000203166002900490600052602060002090601f016020900481019282601f10610a8a57805160ff1916838001178555610ab8565b82800160010185558215610ab8579182015b82811115610ab7578251825591602001919060010190610a9c565b5b509050610ac59190610ac9565b5090565b610aeb91905b80821115610ae7576000816000905550600101610acf565b5090565b9056fea265627a7a723158204e534373fb03b088e6b18745c4c8512d98b67f61d9b05fab015c23964cb5458164736f6c63430005100032",
  "source": "// SPDX-License-Identifier: MIT\npragma solidity >0.5.0;\n\ncontract Diploma {\n\n    struct MyDiplomaEntry {\n        string ipfsHash;\n        string fileName;\n        uint timestamp;\n        bytes32 checkSum;\n        uint grade;\n        bool isSet;\n        address setBy;\n    }\n\n    mapping (bytes32 => MyDiplomaEntry) public myMapping;\n    \n    event NewEntry(bytes32 _checksum, string _ipfsHash, string _filename, address indexed _setBy);\n\n    /*\n    * 0x9F86D081884C7D659A2FEAA0C55AD015A3BF4F1B2B0B822CD15D6C15B0F00A08, \"test\", 9\n    */\n\n    function createDiploma(bytes32 _checksum, string memory _ipfsHash, string memory _fileName, uint _grade) public {\n        require(!myMapping[_checksum].isSet);\n\n        myMapping[_checksum].isSet = true;\n        myMapping[_checksum].ipfsHash = _ipfsHash;\n        myMapping[_checksum].fileName = _fileName;\n        myMapping[_checksum].timestamp = block.timestamp;\n        myMapping[_checksum].grade = _grade;\n        myMapping[_checksum].setBy = msg.sender;\n\n        emit NewEntry(_checksum, _ipfsHash, _fileName, msg.sender);\n    }\n\n    function getDiploma(bytes32 _checksum) public view returns(string memory, string memory, uint, uint, address) {\n        // require(myMapping[_checksum].isSet);\n        return (myMapping[_checksum].fileName, myMapping[_checksum].ipfsHash, myMapping[_checksum].timestamp, myMapping[_checksum].grade, myMapping[_checksum].setBy);\n    }\n\n}\n",
  "sourcePath": "/home/geov/Public/facultate/truffle-backend-2/contracts/Diploma.sol",
  "compiler": {
    "name": "solc",
    "version": "0.5.16+commit.9c3226ce.Emscripten.clang"
  },
  "schemaVersion": "3.3.4",
  "updatedAt": "2021-04-03T12:39:26.208Z",
  "networkType": "ethereum",
  "devdoc": {
    "methods": {}
  },
  "userdoc": {
    "methods": {}
  }
}